{
	"abi": [
		{
			"type": "constructor",
			"inputs": [
				{
					"name": "adminOperationsAddress",
					"type": "address",
					"internalType": "address"
				}
			],
			"stateMutability": "nonpayable"
		},
		{
			"type": "fallback",
			"stateMutability": "nonpayable"
		},
		{
			"type": "function",
			"name": "batchBuyRbtc",
			"inputs": [
				{
					"name": "buyers",
					"type": "address[]",
					"internalType": "address[]"
				},
				{
					"name": "token",
					"type": "address",
					"internalType": "address"
				},
				{
					"name": "scheduleIndexes",
					"type": "uint256[]",
					"internalType": "uint256[]"
				},
				{
					"name": "purchaseAmounts",
					"type": "uint256[]",
					"internalType": "uint256[]"
				},
				{
					"name": "purchasePeriods",
					"type": "uint256[]",
					"internalType": "uint256[]"
				}
			],
			"outputs": [],
			"stateMutability": "nonpayable"
		},
		{
			"type": "function",
			"name": "buyRbtc",
			"inputs": [
				{
					"name": "buyer",
					"type": "address",
					"internalType": "address"
				},
				{
					"name": "token",
					"type": "address",
					"internalType": "address"
				},
				{
					"name": "scheduleIndex",
					"type": "uint256",
					"internalType": "uint256"
				}
			],
			"outputs": [],
			"stateMutability": "nonpayable"
		},
		{
			"type": "function",
			"name": "createDcaSchedule",
			"inputs": [
				{
					"name": "token",
					"type": "address",
					"internalType": "address"
				},
				{
					"name": "depositAmount",
					"type": "uint256",
					"internalType": "uint256"
				},
				{
					"name": "purchaseAmount",
					"type": "uint256",
					"internalType": "uint256"
				},
				{
					"name": "purchasePeriod",
					"type": "uint256",
					"internalType": "uint256"
				}
			],
			"outputs": [],
			"stateMutability": "nonpayable"
		},
		{
			"type": "function",
			"name": "deleteDcaSchedule",
			"inputs": [
				{
					"name": "token",
					"type": "address",
					"internalType": "address"
				},
				{
					"name": "scheduleIndex",
					"type": "uint256",
					"internalType": "uint256"
				}
			],
			"outputs": [],
			"stateMutability": "nonpayable"
		},
		{
			"type": "function",
			"name": "depositToken",
			"inputs": [
				{
					"name": "token",
					"type": "address",
					"internalType": "address"
				},
				{
					"name": "scheduleIndex",
					"type": "uint256",
					"internalType": "uint256"
				},
				{
					"name": "depositAmount",
					"type": "uint256",
					"internalType": "uint256"
				}
			],
			"outputs": [],
			"stateMutability": "nonpayable"
		},
		{
			"type": "function",
			"name": "getAdminOperationsAddress",
			"inputs": [],
			"outputs": [
				{
					"name": "",
					"type": "address",
					"internalType": "address"
				}
			],
			"stateMutability": "view"
		},
		{
			"type": "function",
			"name": "getMinPurchasePeriod",
			"inputs": [],
			"outputs": [
				{
					"name": "",
					"type": "uint256",
					"internalType": "uint256"
				}
			],
			"stateMutability": "view"
		},
		{
			"type": "function",
			"name": "getMyDcaSchedules",
			"inputs": [
				{
					"name": "token",
					"type": "address",
					"internalType": "address"
				}
			],
			"outputs": [
				{
					"name": "",
					"type": "tuple[]",
					"internalType": "struct IDcaManager.DcaDetails[]",
					"components": [
						{
							"name": "tokenBalance",
							"type": "uint256",
							"internalType": "uint256"
						},
						{
							"name": "purchaseAmount",
							"type": "uint256",
							"internalType": "uint256"
						},
						{
							"name": "purchasePeriod",
							"type": "uint256",
							"internalType": "uint256"
						},
						{
							"name": "lastPurchaseTimestamp",
							"type": "uint256",
							"internalType": "uint256"
						}
					]
				}
			],
			"stateMutability": "view"
		},
		{
			"type": "function",
			"name": "getSchedulePurchaseAmount",
			"inputs": [
				{
					"name": "token",
					"type": "address",
					"internalType": "address"
				},
				{
					"name": "scheduleIndex",
					"type": "uint256",
					"internalType": "uint256"
				}
			],
			"outputs": [
				{
					"name": "",
					"type": "uint256",
					"internalType": "uint256"
				}
			],
			"stateMutability": "view"
		},
		{
			"type": "function",
			"name": "getSchedulePurchasePeriod",
			"inputs": [
				{
					"name": "token",
					"type": "address",
					"internalType": "address"
				},
				{
					"name": "scheduleIndex",
					"type": "uint256",
					"internalType": "uint256"
				}
			],
			"outputs": [
				{
					"name": "",
					"type": "uint256",
					"internalType": "uint256"
				}
			],
			"stateMutability": "view"
		},
		{
			"type": "function",
			"name": "getScheduleTokenBalance",
			"inputs": [
				{
					"name": "token",
					"type": "address",
					"internalType": "address"
				},
				{
					"name": "scheduleIndex",
					"type": "uint256",
					"internalType": "uint256"
				}
			],
			"outputs": [
				{
					"name": "",
					"type": "uint256",
					"internalType": "uint256"
				}
			],
			"stateMutability": "view"
		},
		{
			"type": "function",
			"name": "getTotalNumberOfDeposits",
			"inputs": [],
			"outputs": [
				{
					"name": "",
					"type": "uint256",
					"internalType": "uint256"
				}
			],
			"stateMutability": "view"
		},
		{
			"type": "function",
			"name": "getUsers",
			"inputs": [],
			"outputs": [
				{
					"name": "",
					"type": "address[]",
					"internalType": "address[]"
				}
			],
			"stateMutability": "view"
		},
		{
			"type": "function",
			"name": "getUsersDepositedTokens",
			"inputs": [
				{
					"name": "user",
					"type": "address",
					"internalType": "address"
				}
			],
			"outputs": [
				{
					"name": "",
					"type": "address[]",
					"internalType": "address[]"
				}
			],
			"stateMutability": "view"
		},
		{
			"type": "function",
			"name": "modifyMinPurchasePeriod",
			"inputs": [
				{
					"name": "minPurchasePeriod",
					"type": "uint256",
					"internalType": "uint256"
				}
			],
			"outputs": [],
			"stateMutability": "nonpayable"
		},
		{
			"type": "function",
			"name": "owner",
			"inputs": [],
			"outputs": [
				{
					"name": "",
					"type": "address",
					"internalType": "address"
				}
			],
			"stateMutability": "view"
		},
		{
			"type": "function",
			"name": "ownerGetUsersDcaSchedules",
			"inputs": [
				{
					"name": "user",
					"type": "address",
					"internalType": "address"
				},
				{
					"name": "token",
					"type": "address",
					"internalType": "address"
				}
			],
			"outputs": [
				{
					"name": "",
					"type": "tuple[]",
					"internalType": "struct IDcaManager.DcaDetails[]",
					"components": [
						{
							"name": "tokenBalance",
							"type": "uint256",
							"internalType": "uint256"
						},
						{
							"name": "purchaseAmount",
							"type": "uint256",
							"internalType": "uint256"
						},
						{
							"name": "purchasePeriod",
							"type": "uint256",
							"internalType": "uint256"
						},
						{
							"name": "lastPurchaseTimestamp",
							"type": "uint256",
							"internalType": "uint256"
						}
					]
				}
			],
			"stateMutability": "view"
		},
		{
			"type": "function",
			"name": "renounceOwnership",
			"inputs": [],
			"outputs": [],
			"stateMutability": "nonpayable"
		},
		{
			"type": "function",
			"name": "setAdminOperations",
			"inputs": [
				{
					"name": "adminOperationsAddress",
					"type": "address",
					"internalType": "address"
				}
			],
			"outputs": [],
			"stateMutability": "nonpayable"
		},
		{
			"type": "function",
			"name": "setPurchaseAmount",
			"inputs": [
				{
					"name": "token",
					"type": "address",
					"internalType": "address"
				},
				{
					"name": "scheduleIndex",
					"type": "uint256",
					"internalType": "uint256"
				},
				{
					"name": "purchaseAmount",
					"type": "uint256",
					"internalType": "uint256"
				}
			],
			"outputs": [],
			"stateMutability": "nonpayable"
		},
		{
			"type": "function",
			"name": "setPurchasePeriod",
			"inputs": [
				{
					"name": "token",
					"type": "address",
					"internalType": "address"
				},
				{
					"name": "scheduleIndex",
					"type": "uint256",
					"internalType": "uint256"
				},
				{
					"name": "purchasePeriod",
					"type": "uint256",
					"internalType": "uint256"
				}
			],
			"outputs": [],
			"stateMutability": "nonpayable"
		},
		{
			"type": "function",
			"name": "transferOwnership",
			"inputs": [
				{
					"name": "newOwner",
					"type": "address",
					"internalType": "address"
				}
			],
			"outputs": [],
			"stateMutability": "nonpayable"
		},
		{
			"type": "function",
			"name": "updateDcaSchedule",
			"inputs": [
				{
					"name": "token",
					"type": "address",
					"internalType": "address"
				},
				{
					"name": "scheduleIndex",
					"type": "uint256",
					"internalType": "uint256"
				},
				{
					"name": "depositAmount",
					"type": "uint256",
					"internalType": "uint256"
				},
				{
					"name": "purchaseAmount",
					"type": "uint256",
					"internalType": "uint256"
				},
				{
					"name": "purchasePeriod",
					"type": "uint256",
					"internalType": "uint256"
				}
			],
			"outputs": [],
			"stateMutability": "nonpayable"
		},
		{
			"type": "function",
			"name": "withdrawAllAccmulatedRbtc",
			"inputs": [],
			"outputs": [],
			"stateMutability": "nonpayable"
		},
		{
			"type": "function",
			"name": "withdrawInterestFromTokenHandler",
			"inputs": [
				{
					"name": "token",
					"type": "address",
					"internalType": "address"
				}
			],
			"outputs": [],
			"stateMutability": "nonpayable"
		},
		{
			"type": "function",
			"name": "withdrawRbtcFromTokenHandler",
			"inputs": [
				{
					"name": "token",
					"type": "address",
					"internalType": "address"
				}
			],
			"outputs": [],
			"stateMutability": "nonpayable"
		},
		{
			"type": "function",
			"name": "withdrawToken",
			"inputs": [
				{
					"name": "token",
					"type": "address",
					"internalType": "address"
				},
				{
					"name": "scheduleIndex",
					"type": "uint256",
					"internalType": "uint256"
				},
				{
					"name": "withdrawalAmount",
					"type": "uint256",
					"internalType": "uint256"
				}
			],
			"outputs": [],
			"stateMutability": "nonpayable"
		},
		{
			"type": "event",
			"name": "DcaManager__DcaScheduleCreated",
			"inputs": [
				{
					"name": "user",
					"type": "address",
					"indexed": true,
					"internalType": "address"
				},
				{
					"name": "token",
					"type": "address",
					"indexed": true,
					"internalType": "address"
				},
				{
					"name": "scheduleIndex",
					"type": "uint256",
					"indexed": true,
					"internalType": "uint256"
				},
				{
					"name": "depositAmount",
					"type": "uint256",
					"indexed": false,
					"internalType": "uint256"
				},
				{
					"name": "purchaseAmount",
					"type": "uint256",
					"indexed": false,
					"internalType": "uint256"
				},
				{
					"name": "purchasePeriod",
					"type": "uint256",
					"indexed": false,
					"internalType": "uint256"
				}
			],
			"anonymous": false
		},
		{
			"type": "event",
			"name": "DcaManager__DcaScheduleDeleted",
			"inputs": [
				{
					"name": "user",
					"type": "address",
					"indexed": false,
					"internalType": "address"
				},
				{
					"name": "token",
					"type": "address",
					"indexed": false,
					"internalType": "address"
				},
				{
					"name": "scheduleIndex",
					"type": "uint256",
					"indexed": false,
					"internalType": "uint256"
				},
				{
					"name": "refundedAmount",
					"type": "uint256",
					"indexed": false,
					"internalType": "uint256"
				}
			],
			"anonymous": false
		},
		{
			"type": "event",
			"name": "DcaManager__DcaScheduleUpdated",
			"inputs": [
				{
					"name": "user",
					"type": "address",
					"indexed": true,
					"internalType": "address"
				},
				{
					"name": "token",
					"type": "address",
					"indexed": true,
					"internalType": "address"
				},
				{
					"name": "scheduleIndex",
					"type": "uint256",
					"indexed": true,
					"internalType": "uint256"
				},
				{
					"name": "depositAmount",
					"type": "uint256",
					"indexed": false,
					"internalType": "uint256"
				},
				{
					"name": "purchaseAmount",
					"type": "uint256",
					"indexed": false,
					"internalType": "uint256"
				},
				{
					"name": "purchasePeriod",
					"type": "uint256",
					"indexed": false,
					"internalType": "uint256"
				}
			],
			"anonymous": false
		},
		{
			"type": "event",
			"name": "DcaManager__TokenBalanceUpdated",
			"inputs": [
				{
					"name": "token",
					"type": "address",
					"indexed": true,
					"internalType": "address"
				},
				{
					"name": "scheduleIndex",
					"type": "uint256",
					"indexed": true,
					"internalType": "uint256"
				},
				{
					"name": "amount",
					"type": "uint256",
					"indexed": true,
					"internalType": "uint256"
				}
			],
			"anonymous": false
		},
		{
			"type": "event",
			"name": "DcaManager__TokenWithdrawn",
			"inputs": [
				{
					"name": "user",
					"type": "address",
					"indexed": true,
					"internalType": "address"
				},
				{
					"name": "token",
					"type": "address",
					"indexed": true,
					"internalType": "address"
				},
				{
					"name": "amount",
					"type": "uint256",
					"indexed": true,
					"internalType": "uint256"
				}
			],
			"anonymous": false
		},
		{
			"type": "event",
			"name": "OwnershipTransferred",
			"inputs": [
				{
					"name": "previousOwner",
					"type": "address",
					"indexed": true,
					"internalType": "address"
				},
				{
					"name": "newOwner",
					"type": "address",
					"indexed": true,
					"internalType": "address"
				}
			],
			"anonymous": false
		},
		{
			"type": "event",
			"name": "PurchaseAmountSet",
			"inputs": [
				{
					"name": "user",
					"type": "address",
					"indexed": true,
					"internalType": "address"
				},
				{
					"name": "purchaseAmount",
					"type": "uint256",
					"indexed": true,
					"internalType": "uint256"
				}
			],
			"anonymous": false
		},
		{
			"type": "event",
			"name": "PurchasePeriodSet",
			"inputs": [
				{
					"name": "user",
					"type": "address",
					"indexed": true,
					"internalType": "address"
				},
				{
					"name": "purchasePeriod",
					"type": "uint256",
					"indexed": true,
					"internalType": "uint256"
				}
			],
			"anonymous": false
		},
		{
			"type": "event",
			"name": "RbtcBought",
			"inputs": [
				{
					"name": "user",
					"type": "address",
					"indexed": true,
					"internalType": "address"
				},
				{
					"name": "docAmount",
					"type": "uint256",
					"indexed": true,
					"internalType": "uint256"
				},
				{
					"name": "rbtcAmount",
					"type": "uint256",
					"indexed": true,
					"internalType": "uint256"
				}
			],
			"anonymous": false
		},
		{
			"type": "event",
			"name": "rBtcWithdrawn",
			"inputs": [
				{
					"name": "user",
					"type": "address",
					"indexed": true,
					"internalType": "address"
				},
				{
					"name": "rbtcAmount",
					"type": "uint256",
					"indexed": true,
					"internalType": "uint256"
				}
			],
			"anonymous": false
		},
		{
			"type": "error",
			"name": "DcaManager__BatchPurchaseArraysLengthMismatch",
			"inputs": []
		},
		{
			"type": "error",
			"name": "DcaManager__CannotBuyIfPurchasePeriodHasNotElapsed",
			"inputs": [
				{
					"name": "timeRemaining",
					"type": "uint256",
					"internalType": "uint256"
				}
			]
		},
		{
			"type": "error",
			"name": "DcaManager__DcaScheduleDoesNotExist",
			"inputs": []
		},
		{
			"type": "error",
			"name": "DcaManager__DepositAmountMustBeGreaterThanZero",
			"inputs": []
		},
		{
			"type": "error",
			"name": "DcaManager__EmptyBatchPurchaseArrays",
			"inputs": []
		},
		{
			"type": "error",
			"name": "DcaManager__InexistentSchedule",
			"inputs": []
		},
		{
			"type": "error",
			"name": "DcaManager__PurchaseAmountMustBeGreaterThanMinimum",
			"inputs": [
				{
					"name": "token",
					"type": "address",
					"internalType": "address"
				}
			]
		},
		{
			"type": "error",
			"name": "DcaManager__PurchaseAmountMustBeLowerThanHalfOfBalance",
			"inputs": []
		},
		{
			"type": "error",
			"name": "DcaManager__PurchasePeriodMustBeGreaterThanMin",
			"inputs": []
		},
		{
			"type": "error",
			"name": "DcaManager__ScheduleBalanceNotEnoughForPurchase",
			"inputs": [
				{
					"name": "token",
					"type": "address",
					"internalType": "address"
				},
				{
					"name": "remainingBalance",
					"type": "uint256",
					"internalType": "uint256"
				}
			]
		},
		{
			"type": "error",
			"name": "DcaManager__TokenDoesNotYieldInterest",
			"inputs": [
				{
					"name": "token",
					"type": "address",
					"internalType": "address"
				}
			]
		},
		{
			"type": "error",
			"name": "DcaManager__TokenNotAccepted",
			"inputs": []
		},
		{
			"type": "error",
			"name": "DcaManager__WithdrawalAmountExceedsBalance",
			"inputs": [
				{
					"name": "token",
					"type": "address",
					"internalType": "address"
				},
				{
					"name": "amount",
					"type": "uint256",
					"internalType": "uint256"
				},
				{
					"name": "balance",
					"type": "uint256",
					"internalType": "uint256"
				}
			]
		},
		{
			"type": "error",
			"name": "DcaManager__WithdrawalAmountMustBeGreaterThanZero",
			"inputs": []
		},
		{
			"type": "error",
			"name": "OwnableInvalidOwner",
			"inputs": [
				{
					"name": "owner",
					"type": "address",
					"internalType": "address"
				}
			]
		},
		{
			"type": "error",
			"name": "OwnableUnauthorizedAccount",
			"inputs": [
				{
					"name": "account",
					"type": "address",
					"internalType": "address"
				}
			]
		},
		{
			"type": "error",
			"name": "ReentrancyGuardReentrantCall",
			"inputs": []
		}
	],
	"bytecode": {
		"object": "0x6080604052620151806008553480156200001857600080fd5b5060405162002779380380620027798339810160408190526200003b91620000e8565b33806200006257604051631e4fbdf760e01b81526000600482015260240160405180910390fd5b6200006d8162000098565b5060018055600280546001600160a01b0319166001600160a01b03929092169190911790556200011a565b600080546001600160a01b038381166001600160a01b0319831681178455604051919092169283917f8be0079c531659141344cd1fd0a4f28419497f9722a3daafe3b4186f6b6457e09190a35050565b600060208284031215620000fb57600080fd5b81516001600160a01b03811681146200011357600080fd5b9392505050565b61264f806200012a6000396000f3fe608060405234801561001057600080fd5b50600436106101a85760003560e01c80638044e59f116100f9578063b55f8dae11610097578063e4452fc811610071578063e4452fc8146103d0578063e980c74a146103e3578063f2fde38b146103f6578063ffd8640814610409576101a8565b8063b55f8dae14610397578063db2a2200146103aa578063e0507e68146103bd576101a8565b806399c6d2de116100d357806399c6d2de14610358578063b0ea81e61461036b578063b34e987b1461037e578063b34eb7b31461038f576101a8565b80638044e59f146103005780638da5cb5b1461032057806396c0ec5514610345576101a8565b806351b027f511610166578063715018a611610140578063715018a6146102bf5780637410a8fc146102c7578063753b2015146102da5780637ac90b3e146102ed576101a8565b806351b027f51461029157806364e3cecb146102a45780636b4b9227146102ac576101a8565b8062ce8e3e1461021357806302bbf5f714610231578063125787e4146102465780631d438fbb1461025957806322969c601461026b5780634db16c521461027e575b6101d86040518060400160405280600f81526020016e11985b1b189858dac818d85b1b1959608a1b81525061041c565b60405162461bcd60e51b815260206004820152600b60248201526a10d85b1b0819985a5b195960aa1b60448201526064015b60405180910390fd5b61021b610462565b6040516102289190612048565b60405180910390f35b61024461023f366004612087565b6104cc565b005b6102446102543660046120a4565b610541565b6008545b604051908152602001610228565b61021b610279366004612087565b6105e7565b61024461028c3660046120e5565b61065d565b61024461029f366004612120565b6107d8565b60075461025d565b61025d6102ba366004612139565b6107e5565b610244610878565b6102446102d5366004612139565b61088c565b6102446102e8366004612165565b610b53565b6102446102fb366004612283565b610d8e565b61031361030e3660046123a2565b610ecb565b60405161022891906123db565b6000546001600160a01b03165b6040516001600160a01b039091168152602001610228565b61024461035336600461243f565b610f7a565b61024461036636600461243f565b6111ab565b61025d610379366004612139565b611354565b6002546001600160a01b031661032d565b6102446113e6565b61025d6103a5366004612139565b6114b8565b6102446103b8366004612087565b61154a565b6102446103cb36600461243f565b611732565b6103136103de366004612087565b611802565b6102446103f136600461243f565b6118a7565b610244610404366004612087565b6119c3565b610244610417366004612087565b6119fe565b61045f816040516024016104309190612474565b60408051601f198184030181529190526020810180516001600160e01b031663104c13eb60e21b179052611a28565b50565b606061046c611a49565b60078054806020026020016040519081016040528092919081815260200182805480156104c257602002820191906000526020600020905b81546001600160a01b031681526001909101906020018083116104a4575b5050505050905090565b6104d4611a76565b6104dd81611aa0565b604051634addee9f60e11b81523360048201526001600160a01b0391909116906395bbdd3e90602401600060405180830381600087803b15801561052057600080fd5b505af1158015610534573d6000803e3d6000fd5b5050505061045f60018055565b610549611a76565b610551611a49565b60008061055f858585611b3b565b9150915061056c84611aa0565b60405163265d0f1f60e01b81526001600160a01b0387811660048301526024820185905260448201849052919091169063265d0f1f90606401600060405180830381600087803b1580156105bf57600080fd5b505af11580156105d3573d6000803e3d6000fd5b5050505050506105e260018055565b505050565b6001600160a01b03811660009081526004602090815260409182902080548351818402810184019094528084526060939283018282801561065157602002820191906000526020600020905b81546001600160a01b03168152600190910190602001808311610633575b50505050509050919050565b61066681611dae565b3360009081526005602090815260408083206001600160a01b03881684529091529020546106948585611dd1565b61069d85611aa0565b6040516319c5aef560e11b8152336004820152602481018690526001600160a01b03919091169063338b5dea90604401600060405180830381600087803b1580156106e757600080fd5b505af11580156106fb573d6000803e3d6000fd5b5050604080516080810182528781526020810187905290810185905260006060820152915061072d9050868587611ef1565b3360008181526005602090815260408083206001600160a01b038b16808552908352818420805460018082018355918652948490208751600490960201948555868401519085015585820151600285015560608087015160039095019490945581518a81529283018990529082018790528593909290917f5bf552615ff1a8e68226267983b7af3c3f714cc1b6110d9836fb673f1426ccd491015b60405180910390a4505050505050565b6107e0611a49565b600855565b3360009081526005602090815260408083206001600160a01b0386168452909152812054821061082857604051630879b63b60e01b815260040160405180910390fd5b3360009081526005602090815260408083206001600160a01b0387168452909152902080548390811061085d5761085d6124c3565b90600052602060002090600402016000015490505b92915050565b610880611a49565b61088a6000611fb3565b565b610894611a76565b3360009081526005602090815260408083206001600160a01b038616845290915290205481106108d7576040516340b0735760e01b815260040160405180910390fd5b3360009081526005602090815260408083206001600160a01b0386168452909152812080548390811061090c5761090c6124c3565b6000918252602080832060408051608081018252600490940290910180548452600180820154858501526002820154858401526003909101546060850152338552600583528185206001600160a01b0389168652909252832054919350610972916124ef565b9050808314610a26573360009081526005602090815260408083206001600160a01b038816845290915290208054829081106109b0576109b06124c3565b600091825260208083203384526005825260408085206001600160a01b038a1686529092529220805460049092029092019190859081106109f3576109f36124c3565b60009182526020909120825460049092020190815560018083015490820155600280830154908201556003918201549101555b3360009081526005602090815260408083206001600160a01b03881684529091529020805480610a5857610a58612502565b6000828152602081206004600019909301928302018181556001810182905560028101829055600301559055610a8d84611aa0565b82516040516313c5035360e31b815233600482015260248101919091526001600160a01b039190911690639e281a9890604401600060405180830381600087803b158015610ada57600080fd5b505af1158015610aee573d6000803e3d6000fd5b50508351604080513381526001600160a01b03891660208201528082018890526060810192909252517f2ad61c4830620d08f1c9d87a85e81209d1e340faaef87ba7bc1857ded40c858d9350908190036080019150a15050610b4f60018055565b5050565b3360009081526005602090815260408083206001600160a01b03891684529091529020548410610b96576040516340b0735760e01b815260040160405180910390fd5b3360009081526005602090815260408083206001600160a01b03891684529091528120805486908110610bcb57610bcb6124c3565b906000526020600020906004020160405180608001604052908160008201548152602001600182015481526020016002820154815260200160038201548152505090506000821115610c2857610c2082611dae565b604081018290525b8315610cb957610c388685611dd1565b8381600001818151610c4a9190612518565b905250610c5686611aa0565b6040516319c5aef560e11b8152336004820152602481018690526001600160a01b03919091169063338b5dea90604401600060405180830381600087803b158015610ca057600080fd5b505af1158015610cb4573d6000803e3d6000fd5b505050505b8215610cd657610cce86848360000151611ef1565b602081018390525b3360009081526005602090815260408083206001600160a01b038a1684529091529020805482919087908110610d0e57610d0e6124c3565b6000918252602091829020835160049092020190815582820151600182015560408084015160028301556060938401516003909201919091558051878152918201869052810184905286916001600160a01b0389169133917fcc47ae0162e78ce8308c40d16e77fbebd1102abd3dc1f51e2cdd61937b2456f291016107c8565b610d96611a76565b610d9e611a49565b84516000819003610dc25760405163f12d846560e01b815260040160405180910390fd5b835181141580610dd3575082518114155b80610ddf575081518114155b15610dfd576040516310ddebfb60e11b815260040160405180910390fd5b60005b81811015610e4f57610e45878281518110610e1d57610e1d6124c3565b602002602001015187878481518110610e3857610e386124c3565b6020026020010151611b3b565b5050600101610e00565b50610e5985611aa0565b6001600160a01b031663a782ed388785856040518463ffffffff1660e01b8152600401610e889392919061255c565b600060405180830381600087803b158015610ea257600080fd5b505af1158015610eb6573d6000803e3d6000fd5b5050505050610ec460018055565b5050505050565b6060610ed5611a49565b6001600160a01b038084166000908152600560209081526040808320938616835292815282822080548451818402810184019095528085529092909184015b82821015610f6e578382906000526020600020906004020160405180608001604052908160008201548152602001600182015481526020016002820154815260200160038201548152505081526020019060010190610f14565b50505050905092915050565b610f82611a76565b60008111610fa3576040516307dabc5960e41b815260040160405180910390fd5b3360009081526005602090815260408083206001600160a01b03871684529091528120805484908110610fd857610fd86124c3565b90600052602060002090600402016000015490508082111561102657604051638509420f60e01b81526001600160a01b0385166004820152602481018390526044810182905260640161020a565b3360009081526005602090815260408083206001600160a01b0388168452909152902080548391908590811061105e5761105e6124c3565b9060005260206000209060040201600001600082825461107e91906124ef565b9091555061108d905084611aa0565b6040516313c5035360e31b8152336004820152602481018490526001600160a01b039190911690639e281a9890604401600060405180830381600087803b1580156110d757600080fd5b505af11580156110eb573d6000803e3d6000fd5b50506040518492506001600160a01b038716915033907f7bfd7801fe7732a11b15de522619e47631ca1b385aea75cfd57b407c24b9be3f90600090a43360009081526005602090815260408083206001600160a01b0388168452909152902080548490811061115c5761115c6124c3565b60009182526020822060049091020154604051909185916001600160a01b038816917f629e7044bb8bd654304e3720df924686a8ddbea0af4e5f07273059f110271cf091a4506105e260018055565b6111b3611a76565b3360009081526005602090815260408083206001600160a01b03871684529091529020548390839081106111fa576040516340b0735760e01b815260040160405180910390fd5b6112048584611dd1565b3360009081526005602090815260408083206001600160a01b0389168452909152902080548491908690811061123c5761123c6124c3565b9060005260206000209060040201600001600082825461125c9190612518565b9091555061126b905085611aa0565b6040516319c5aef560e11b8152336004820152602481018590526001600160a01b03919091169063338b5dea90604401600060405180830381600087803b1580156112b557600080fd5b505af11580156112c9573d6000803e3d6000fd5b50503360009081526005602090815260408083206001600160a01b038b168452909152902080549092508691508110611304576113046124c3565b60009182526020822060049091020154604051909186916001600160a01b038916917f629e7044bb8bd654304e3720df924686a8ddbea0af4e5f07273059f110271cf091a450506105e260018055565b3360009081526005602090815260408083206001600160a01b0386168452909152812054821061139757604051630879b63b60e01b815260040160405180910390fd5b3360009081526005602090815260408083206001600160a01b038716845290915290208054839081106113cc576113cc6124c3565b906000526020600020906004020160020154905092915050565b6113ee611a76565b60005b336000908152600460205260409020548110156114ae57336000908152600460205260409020805461144891908390811061142e5761142e6124c3565b6000918252602090912001546001600160a01b0316611aa0565b604051634addee9f60e11b81523360048201526001600160a01b0391909116906395bbdd3e90602401600060405180830381600087803b15801561148b57600080fd5b505af115801561149f573d6000803e3d6000fd5b505050508060010190506113f1565b5061088a60018055565b3360009081526005602090815260408083206001600160a01b038616845290915281205482106114fb57604051630879b63b60e01b815260040160405180910390fd5b3360009081526005602090815260408083206001600160a01b03871684529091529020805483908110611530576115306124c3565b906000526020600020906004020160010154905092915050565b611552611a76565b600061155d82611aa0565b9050806001600160a01b031663d90535786040518163ffffffff1660e01b81526004016020604051808303816000875af115801561159f573d6000803e3d6000fd5b505050506040513d601f19601f820116820180604052508101906115c3919061259f565b6115eb57604051632a4b3f7160e21b81526001600160a01b038316600482015260240161020a565b3360009081526005602090815260408083206001600160a01b0386168452825280832080548251818502810185019093528083528493849084015b82821015611680578382906000526020600020906004020160405180608001604052908160008201548152602001600182015481526020016002820154815260200160038201548152505081526020019060010190611626565b50505050905060005b81518110156116c5578181815181106116a4576116a46124c3565b602002602001015160000151836116bb9190612518565b9250600101611689565b50604051635b730e6960e01b8152336004820152602481018390526001600160a01b03841690635b730e6990604401600060405180830381600087803b15801561170e57600080fd5b505af1158015611722573d6000803e3d6000fd5b5050505050505061045f60018055565b3360009081526005602090815260408083206001600160a01b0387168452909152902054839083908110611779576040516340b0735760e01b815260040160405180910390fd5b61178283611dae565b3360009081526005602090815260408083206001600160a01b038916845290915290208054849190869081106117ba576117ba6124c3565b60009182526020822060026004909202010191909155604051849133917f77e29062d533f61d9352b3ea14a16b8a90f5fab3a0fd09bf710266ffd5cc0a1c9190a35050505050565b3360009081526005602090815260408083206001600160a01b03851684528252808320805482518185028101850190935280835260609492939192909184015b8282101561189c578382906000526020600020906004020160405180608001604052908160008201548152602001600182015481526020016002820154815260200160038201548152505081526020019060010190611842565b505050509050919050565b3360009081526005602090815260408083206001600160a01b03871684529091529020548390839081106118ee576040516340b0735760e01b815260040160405180910390fd5b3360009081526005602090815260408083206001600160a01b0389168452909152902080546119439187918691908890811061192c5761192c6124c3565b906000526020600020906004020160000154611ef1565b3360009081526005602090815260408083206001600160a01b0389168452909152902080548491908690811061197b5761197b6124c3565b60009182526020822060016004909202010191909155604051849133917f9ef3c38610339e526d85242c289477716bbba99202509c3dba2eea3fe50ad6b79190a35050505050565b6119cb611a49565b6001600160a01b0381166119f557604051631e4fbdf760e01b81526000600482015260240161020a565b61045f81611fb3565b611a06611a49565b600280546001600160a01b0319166001600160a01b0392909216919091179055565b80516a636f6e736f6c652e6c6f67602083016000808483855afa5050505050565b6000546001600160a01b0316331461088a5760405163118cdaa760e01b815233600482015260240161020a565b600260015403611a9957604051633ee5aeb560e01b815260040160405180910390fd5b6002600155565b600254604051631dcf1d6b60e11b81526001600160a01b0383811660048301526000928392911690633b9e3ad690602401602060405180830381865afa158015611aee573d6000803e3d6000fd5b505050506040513d601f19601f82011682018060405250810190611b1291906125c1565b90506001600160a01b03811661087257604051631b38ebfd60e31b815260040160405180910390fd5b6001600160a01b038084166000908152600560209081526040808320938616835292905290812080548291829185908110611b7857611b786124c3565b60009182526020808320600360049093020191909101546001600160a01b03808a168452600583526040808520918a168552925290822080549193509086908110611bc557611bc56124c3565b9060005260206000209060040201600201549050600082118015611bf1575080611bef83426124ef565b105b15611c275742611c018284612518565b611c0b91906124ef565b604051638f752a8d60e01b815260040161020a91815260200190565b6001600160a01b038088166000908152600560209081526040808320938a168352929052908120805487908110611c6057611c606124c3565b60009182526020808320600160049093020191909101546001600160a01b03808c168452600583526040808520918c168552925290822080549193509088908110611cad57611cad6124c3565b906000526020600020906004020160000154905080821115611cf45760405163055dac8960e21b81526001600160a01b03891660048201526024810182905260440161020a565b6001600160a01b03808a166000908152600560209081526040808320938c16835292905220805483919089908110611d2e57611d2e6124c3565b90600052602060002090600402016000016000828254611d4e91906124ef565b90915550506001600160a01b03808a166000908152600560209081526040808320938c16835292905220805442919089908110611d8d57611d8d6124c3565b60009182526020909120600490910201600301555097909650945050505050565b60085481101561045f57604051637296e46d60e01b815260040160405180910390fd5b60008111611df25760405163319a1aaf60e11b815260040160405180910390fd5b3360009081526003602090815260408083206001600160a01b038616845290915290205460ff16611e7a573360008181526003602090815260408083206001600160a01b038716808552908352818420805460ff1916600190811790915594845260048352908320805494850181558352912090910180546001600160a01b03191690911790555b3360009081526006602052604090205460ff16610b4f57336000818152600660205260408120805460ff191660019081179091556007805491820181559091527fa66cc928b5edb82af9bd49922954155ab7b0942694bea4ce44661d9a8736c6880180546001600160a01b03191690911790555050565b611efa83611aa0565b6001600160a01b03166362fc20916040518163ffffffff1660e01b81526004016020604051808303816000875af1158015611f39573d6000803e3d6000fd5b505050506040513d601f19601f82011682018060405250810190611f5d91906125de565b821015611f885760405163180749a160e01b81526001600160a01b038416600482015260240161020a565b611f936002826125f7565b8211156105e257604051634dad2bb560e11b815260040160405180910390fd5b600080546001600160a01b038381166001600160a01b0319831681178455604051919092169283917f8be0079c531659141344cd1fd0a4f28419497f9722a3daafe3b4186f6b6457e09190a35050565b60008151808452602080850194506020840160005b8381101561203d5781516001600160a01b031687529582019590820190600101612018565b509495945050505050565b60208152600061205b6020830184612003565b9392505050565b6001600160a01b038116811461045f57600080fd5b803561208281612062565b919050565b60006020828403121561209957600080fd5b813561205b81612062565b6000806000606084860312156120b957600080fd5b83356120c481612062565b925060208401356120d481612062565b929592945050506040919091013590565b600080600080608085870312156120fb57600080fd5b843561210681612062565b966020860135965060408601359560600135945092505050565b60006020828403121561213257600080fd5b5035919050565b6000806040838503121561214c57600080fd5b823561215781612062565b946020939093013593505050565b600080600080600060a0868803121561217d57600080fd5b853561218881612062565b97602087013597506040870135966060810135965060800135945092505050565b634e487b7160e01b600052604160045260246000fd5b604051601f8201601f1916810167ffffffffffffffff811182821017156121e8576121e86121a9565b604052919050565b600067ffffffffffffffff82111561220a5761220a6121a9565b5060051b60200190565b600082601f83011261222557600080fd5b8135602061223a612235836121f0565b6121bf565b8083825260208201915060208460051b87010193508684111561225c57600080fd5b602086015b848110156122785780358352918301918301612261565b509695505050505050565b600080600080600060a0868803121561229b57600080fd5b853567ffffffffffffffff808211156122b357600080fd5b818801915088601f8301126122c757600080fd5b813560206122d7612235836121f0565b82815260059290921b8401810191818101908c8411156122f657600080fd5b948201945b8386101561231d57853561230e81612062565b825294820194908201906122fb565b995061232c90508a8201612077565b97505050604088013591508082111561234457600080fd5b61235089838a01612214565b9450606088013591508082111561236657600080fd5b61237289838a01612214565b9350608088013591508082111561238857600080fd5b5061239588828901612214565b9150509295509295909350565b600080604083850312156123b557600080fd5b82356123c081612062565b915060208301356123d081612062565b809150509250929050565b602080825282518282018190526000919060409081850190868401855b82811015612432578151805185528681015187860152858101518686015260609081015190850152608090930192908501906001016123f8565b5091979650505050505050565b60008060006060848603121561245457600080fd5b833561245f81612062565b95602085013595506040909401359392505050565b60006020808352835180602085015260005b818110156124a257858101830151858201604001528201612486565b506000604082860101526040601f19601f8301168501019250505092915050565b634e487b7160e01b600052603260045260246000fd5b634e487b7160e01b600052601160045260246000fd5b81810381811115610872576108726124d9565b634e487b7160e01b600052603160045260246000fd5b80820180821115610872576108726124d9565b60008151808452602080850194506020840160005b8381101561203d57815187529582019590820190600101612540565b60608152600061256f6060830186612003565b8281036020840152612581818661252b565b90508281036040840152612595818561252b565b9695505050505050565b6000602082840312156125b157600080fd5b8151801515811461205b57600080fd5b6000602082840312156125d357600080fd5b815161205b81612062565b6000602082840312156125f057600080fd5b5051919050565b60008261261457634e487b7160e01b600052601260045260246000fd5b50049056fea2646970667358221220aca9a196fb14b1dc104f32de9fab7d441b7148a3b4a7d721f770808a868a141164736f6c63430008180033",
		"linkReferences": {}
	},
	"methodIdentifiers": {
		"batchBuyRbtc(address[],address,uint256[],uint256[],uint256[])": "7ac90b3e",
		"buyRbtc(address,address,uint256)": "125787e4",
		"createDcaSchedule(address,uint256,uint256,uint256)": "4db16c52",
		"deleteDcaSchedule(address,uint256)": "7410a8fc",
		"depositToken(address,uint256,uint256)": "99c6d2de",
		"getAdminOperationsAddress()": "b34e987b",
		"getMinPurchasePeriod()": "1d438fbb",
		"getMyDcaSchedules(address)": "e4452fc8",
		"getSchedulePurchaseAmount(address,uint256)": "b55f8dae",
		"getSchedulePurchasePeriod(address,uint256)": "b0ea81e6",
		"getScheduleTokenBalance(address,uint256)": "6b4b9227",
		"getTotalNumberOfDeposits()": "64e3cecb",
		"getUsers()": "00ce8e3e",
		"getUsersDepositedTokens(address)": "22969c60",
		"modifyMinPurchasePeriod(uint256)": "51b027f5",
		"owner()": "8da5cb5b",
		"ownerGetUsersDcaSchedules(address,address)": "8044e59f",
		"renounceOwnership()": "715018a6",
		"setAdminOperations(address)": "ffd86408",
		"setPurchaseAmount(address,uint256,uint256)": "e980c74a",
		"setPurchasePeriod(address,uint256,uint256)": "e0507e68",
		"transferOwnership(address)": "f2fde38b",
		"updateDcaSchedule(address,uint256,uint256,uint256,uint256)": "753b2015",
		"withdrawAllAccmulatedRbtc()": "b34eb7b3",
		"withdrawInterestFromTokenHandler(address)": "db2a2200",
		"withdrawRbtcFromTokenHandler(address)": "02bbf5f7",
		"withdrawToken(address,uint256,uint256)": "96c0ec55"
	},
	"id": 49
}